{"abi":[{"type":"function","name":"FAUCET_AMOUNT","inputs":[],"outputs":[{"name":"","type":"uint256","internalType":"uint256"}],"stateMutability":"view"},{"type":"function","name":"allowance","inputs":[{"name":"","type":"address","internalType":"address"},{"name":"","type":"address","internalType":"address"}],"outputs":[{"name":"","type":"uint256","internalType":"uint256"}],"stateMutability":"view"},{"type":"function","name":"approve","inputs":[{"name":"spender","type":"address","internalType":"address"},{"name":"value","type":"uint256","internalType":"uint256"}],"outputs":[{"name":"","type":"bool","internalType":"bool"}],"stateMutability":"nonpayable"},{"type":"function","name":"balanceOf","inputs":[{"name":"","type":"address","internalType":"address"}],"outputs":[{"name":"","type":"uint256","internalType":"uint256"}],"stateMutability":"view"},{"type":"function","name":"decimals","inputs":[],"outputs":[{"name":"","type":"uint8","internalType":"uint8"}],"stateMutability":"view"},{"type":"function","name":"faucet","inputs":[],"outputs":[],"stateMutability":"nonpayable"},{"type":"function","name":"name","inputs":[],"outputs":[{"name":"","type":"string","internalType":"string"}],"stateMutability":"view"},{"type":"function","name":"symbol","inputs":[],"outputs":[{"name":"","type":"string","internalType":"string"}],"stateMutability":"view"},{"type":"function","name":"totalSupply","inputs":[],"outputs":[{"name":"","type":"uint256","internalType":"uint256"}],"stateMutability":"view"},{"type":"function","name":"transfer","inputs":[{"name":"to","type":"address","internalType":"address"},{"name":"value","type":"uint256","internalType":"uint256"}],"outputs":[{"name":"","type":"bool","internalType":"bool"}],"stateMutability":"nonpayable"},{"type":"function","name":"transferFrom","inputs":[{"name":"from","type":"address","internalType":"address"},{"name":"to","type":"address","internalType":"address"},{"name":"value","type":"uint256","internalType":"uint256"}],"outputs":[{"name":"","type":"bool","internalType":"bool"}],"stateMutability":"nonpayable"},{"type":"event","name":"Approval","inputs":[{"name":"owner","type":"address","indexed":true,"internalType":"address"},{"name":"spender","type":"address","indexed":true,"internalType":"address"},{"name":"value","type":"uint256","indexed":false,"internalType":"uint256"}],"anonymous":false},{"type":"event","name":"Transfer","inputs":[{"name":"from","type":"address","indexed":true,"internalType":"address"},{"name":"to","type":"address","indexed":true,"internalType":"address"},{"name":"value","type":"uint256","indexed":false,"internalType":"uint256"}],"anonymous":false}],"bytecode":{"object":"0x6080604052348015600e575f5ffd5b50610cfa8061001c5f395ff3fe608060405234801561000f575f5ffd5b50600436106100a7575f3560e01c806370a082311161006f57806370a0823114610165578063766976401461019557806395d89b41146101b3578063a9059cbb146101d1578063dd62ed3e14610201578063de5f72fd14610231576100a7565b806306fdde03146100ab578063095ea7b3146100c957806318160ddd146100f957806323b872dd14610117578063313ce56714610147575b5f5ffd5b6100b361023b565b6040516100c091906108c2565b60405180910390f35b6100e360048036038101906100de9190610973565b610274565b6040516100f091906109cb565b60405180910390f35b610101610361565b60405161010e91906109f3565b60405180910390f35b610131600480360381019061012c9190610a0c565b610366565b60405161013e91906109cb565b60405180910390f35b61014f6104eb565b60405161015c9190610a77565b60405180910390f35b61017f600480360381019061017a9190610a90565b6104f0565b60405161018c91906109f3565b60405180910390f35b61019d610505565b6040516101aa91906109f3565b60405180910390f35b6101bb61050d565b6040516101c891906108c2565b60405180910390f35b6101eb60048036038101906101e69190610973565b610546565b6040516101f891906109cb565b60405180910390f35b61021b60048036038101906102169190610abb565b61055a565b60405161022891906109f3565b60405180910390f35b61023961057a565b005b6040518060400160405280600a81526020017f546574686572205553440000000000000000000000000000000000000000000081525081565b5f8160025f3373ffffffffffffffffffffffffffffffffffffffff1673ffffffffffffffffffffffffffffffffffffffff1681526020019081526020015f205f8573ffffffffffffffffffffffffffffffffffffffff1673ffffffffffffffffffffffffffffffffffffffff1681526020019081526020015f20819055508273ffffffffffffffffffffffffffffffffffffffff163373ffffffffffffffffffffffffffffffffffffffff167f8c5be1e5ebec7d5bd14f71427d1e84f3dd0314c0f7b2291e5b200ac8c7c3b9258460405161034f91906109f3565b60405180910390a36001905092915050565b5f5481565b5f5f60025f8673ffffffffffffffffffffffffffffffffffffffff1673ffffffffffffffffffffffffffffffffffffffff1681526020019081526020015f205f3373ffffffffffffffffffffffffffffffffffffffff1673ffffffffffffffffffffffffffffffffffffffff1681526020019081526020015f2054905082811015610426576040517f08c379a000000000000000000000000000000000000000000000000000000000815260040161041d90610b43565b60405180910390fd5b7fffffffffffffffffffffffffffffffffffffffffffffffffffffffffffffffff81146104d65782816104599190610b8e565b60025f8773ffffffffffffffffffffffffffffffffffffffff1673ffffffffffffffffffffffffffffffffffffffff1681526020019081526020015f205f3373ffffffffffffffffffffffffffffffffffffffff1673ffffffffffffffffffffffffffffffffffffffff1681526020019081526020015f20819055505b6104e1858585610657565b9150509392505050565b600681565b6001602052805f5260405f205f915090505481565b6305f5e10081565b6040518060400160405280600481526020017f555344540000000000000000000000000000000000000000000000000000000081525081565b5f610552338484610657565b905092915050565b6002602052815f5260405f20602052805f5260405f205f91509150505481565b6305f5e1005f5f82825461058e9190610bc1565b925050819055506305f5e10060015f3373ffffffffffffffffffffffffffffffffffffffff1673ffffffffffffffffffffffffffffffffffffffff1681526020019081526020015f205f8282546105e59190610bc1565b925050819055503373ffffffffffffffffffffffffffffffffffffffff165f73ffffffffffffffffffffffffffffffffffffffff167fddf252ad1be2c89b69c2b068fc378daa952ba7f163c4a11628f55a4df523b3ef6305f5e10060405161064d91906109f3565b60405180910390a3565b5f5f73ffffffffffffffffffffffffffffffffffffffff168373ffffffffffffffffffffffffffffffffffffffff16036106c6576040517f08c379a00000000000000000000000000000000000000000000000000000000081526004016106bd90610c3e565b60405180910390fd5b5f60015f8673ffffffffffffffffffffffffffffffffffffffff1673ffffffffffffffffffffffffffffffffffffffff1681526020019081526020015f205490508281101561074a576040517f08c379a000000000000000000000000000000000000000000000000000000000815260040161074190610ca6565b60405180910390fd5b82810360015f8773ffffffffffffffffffffffffffffffffffffffff1673ffffffffffffffffffffffffffffffffffffffff1681526020019081526020015f20819055508260015f8673ffffffffffffffffffffffffffffffffffffffff1673ffffffffffffffffffffffffffffffffffffffff1681526020019081526020015f205f8282546107da9190610bc1565b925050819055508373ffffffffffffffffffffffffffffffffffffffff168573ffffffffffffffffffffffffffffffffffffffff167fddf252ad1be2c89b69c2b068fc378daa952ba7f163c4a11628f55a4df523b3ef8560405161083e91906109f3565b60405180910390a360019150509392505050565b5f81519050919050565b5f82825260208201905092915050565b8281835e5f83830152505050565b5f601f19601f8301169050919050565b5f61089482610852565b61089e818561085c565b93506108ae81856020860161086c565b6108b78161087a565b840191505092915050565b5f6020820190508181035f8301526108da818461088a565b905092915050565b5f5ffd5b5f73ffffffffffffffffffffffffffffffffffffffff82169050919050565b5f61090f826108e6565b9050919050565b61091f81610905565b8114610929575f5ffd5b50565b5f8135905061093a81610916565b92915050565b5f819050919050565b61095281610940565b811461095c575f5ffd5b50565b5f8135905061096d81610949565b92915050565b5f5f60408385031215610989576109886108e2565b5b5f6109968582860161092c565b92505060206109a78582860161095f565b9150509250929050565b5f8115159050919050565b6109c5816109b1565b82525050565b5f6020820190506109de5f8301846109bc565b92915050565b6109ed81610940565b82525050565b5f602082019050610a065f8301846109e4565b92915050565b5f5f5f60608486031215610a2357610a226108e2565b5b5f610a308682870161092c565b9350506020610a418682870161092c565b9250506040610a528682870161095f565b9150509250925092565b5f60ff82169050919050565b610a7181610a5c565b82525050565b5f602082019050610a8a5f830184610a68565b92915050565b5f60208284031215610aa557610aa46108e2565b5b5f610ab28482850161092c565b91505092915050565b5f5f60408385031215610ad157610ad06108e2565b5b5f610ade8582860161092c565b9250506020610aef8582860161092c565b9150509250929050565b7f555344543a20696e73756666696369656e7420616c6c6f77616e6365000000005f82015250565b5f610b2d601c8361085c565b9150610b3882610af9565b602082019050919050565b5f6020820190508181035f830152610b5a81610b21565b9050919050565b7f4e487b71000000000000000000000000000000000000000000000000000000005f52601160045260245ffd5b5f610b9882610940565b9150610ba383610940565b9250828203905081811115610bbb57610bba610b61565b5b92915050565b5f610bcb82610940565b9150610bd683610940565b9250828201905080821115610bee57610bed610b61565b5b92915050565b7f555344543a207472616e7366657220746f207a65726f206164647265737300005f82015250565b5f610c28601e8361085c565b9150610c3382610bf4565b602082019050919050565b5f6020820190508181035f830152610c5581610c1c565b9050919050565b7f555344543a20696e73756666696369656e742062616c616e63650000000000005f82015250565b5f610c90601a8361085c565b9150610c9b82610c5c565b602082019050919050565b5f6020820190508181035f830152610cbd81610c84565b905091905056fea26469706673582212209eb7221c42581ac3201c2d31da8767a97bd95b2e046693e38d757a52e709b42564736f6c634300081b0033","linkReferences":{}},"methodIdentifiers":{"FAUCET_AMOUNT()":"76697640","allowance(address,address)":"dd62ed3e","approve(address,uint256)":"095ea7b3","balanceOf(address)":"70a08231","decimals()":"313ce567","faucet()":"de5f72fd","name()":"06fdde03","symbol()":"95d89b41","totalSupply()":"18160ddd","transfer(address,uint256)":"a9059cbb","transferFrom(address,address,uint256)":"23b872dd"},"id":19}